:020000040800F2
:10000000F00B0020FD1600085917000859170008CA
:100010005917000859170008591700080000000078
:100020000000000000000000000000005917000858
:10003000591700080000000059170008AD250008F6
:1000400059170008591700085917000859170008D0
:1000500059170008591700085917000859170008C0
:1000600059170008591700085917000859170008B0
:100070005917000859170008F11A00084D460008E2
:1000800059170008A1490008591700085917000816
:100090005917000859170008591700085917000880
:1000A0005917000859170008591700085917000870
:1000B0005917000859170008591700085917000860
:1000C0005917000859170008591700085917000850
:1000D000591700085917000891480008D919000855
:1000E0005917000859170008591700085917000830
:1000F0005917000859170008591700085917000820
:10010000591700085917000859170008591700080F
:100110002D45000859170008C93B00085917000869
:1001200059170008591700085917000859170008EF
:1001300059170008591700085917000859170008DF
:1001400059170008591700085917000859170008CF
:1001500059170008591700085917000859170008BF
:1001600059170008591700085917000859170008AF
:10017000591700085917000859170008591700089F
:10018000591700085917000880B485B000AF78608F
:100190000B46FB700023FB730123BB7309E0BB7BA1
:1001A0007A6813441A78FB7B5340FB73BB7B0133A3
:1001B000BB73BA7BFB789A42F1D3FB7B18461437AA
:1001C000BD4680BC704700BF80B500AF80220021D3
:1001D000024805F0A1FB00BF80BD00BFFC0000206D
:1001E00080B500AF80220021024805F095FB00BFDA
:1001F00080BD00BF8C01002080B485B000AF786066
:100200000023FB7309E0FB7BFA7B79680A441178D1
:10021000084AD154FB7B0133FB7397F90F30002B55
:10022000F1DA054B01221A7000BF1437BD4680BCBD
:10023000704700BF8C0100203800002080B500AF5F
:10024000A04B9B78822B00F23A8101A252F823F056
:10025000BD040008BF040008BF040008BF04000874
:10026000BF040008BF040008BF040008BF04000862
:10027000BF040008BF040008BF040008BF04000852
:10028000BF040008BF040008BF040008BF04000842
:10029000BF040008BF040008BF040008BF04000832
:1002A000BF040008BF040008BF040008BF04000822
:1002B000BF040008BF040008BF040008BF04000812
:1002C000BF040008BF040008BF040008BF04000802
:1002D000BF040008BF040008BF040008BF040008F2
:1002E000BF040008BF040008BF040008BF040008E2
:1002F000BF040008BF040008BF040008BF040008D2
:10030000BF040008BF040008BF040008BF040008C1
:10031000BF0400085D040008810400088704000889
:1003200063040008BF040008BF040008BF040008FD
:10033000BF040008BF040008BF040008BF04000891
:10034000BF040008BF040008BF040008BF04000881
:10035000BF040008690400086F040008BF04000817
:10036000BF04000875040008BF040008BF040008AB
:10037000BF040008BF040008BF040008BF04000851
:10038000BF040008BF040008BF040008BF04000841
:10039000BF0400087B040008BF040008BF04000875
:1003A000BF040008BF040008BF040008BF04000821
:1003B000BF040008BF040008BF040008BF04000811
:1003C000BF040008BF040008BF040008BF04000801
:1003D000BF0400088D04000893040008BF0400084F
:1003E000BF04000899040008BF040008BF04000807
:1003F000BF040008BF040008BF040008BF040008D1
:10040000BF040008BF040008BF040008BF040008C0
:10041000BF0400089F040008A5040008AB040008FE
:10042000B1040008BF040008BF040008BF040008AE
:10043000BF040008BF040008BF040008BF04000890
:10044000BF040008BF040008BF040008BF04000880
:10045000BF040008BF040008B704000800F076F8E5
:100460002DE000F08DF82AE000F0AAF827E000F077
:100470009DF924E000F006FA21E000F0A3FA1EE066
:1004800000F0D0FA1BE000F05DFB18E000F0E6FBA6
:1004900015E000F0FFFB12E000F0EEFB0FE000F0D3
:1004A0003BFC0CE000F082FC09E000F069FC06E097
:1004B00000F084FC03E000F06BFC00E000BF00BF34
:1004C00080BD00BF8C01002090B585B000AF786082
:1004D0000B46FB701346BB70FFF776FE1A4B0222E9
:1004E0001A70194ABB785370174AFB78937000232F
:1004F000FB730AE0FB7B0333FA7B79680A441178CB
:10050000114AD154FB7B0133FB73FA7BBB78013B6F
:100510009A42EFDBBB789C1CBB780233DBB21946F6
:100520000948FFF731FE03461A46074B1A55BB78B8
:100530000333DBB2184601F027FAFFF751FE00BF84
:100540001437BD4690BD00BFFC00002080B582B0CE
:1005500000AF084B1B783B71074B1B787B71074B37
:1005600099783B1D03221846FFF7AEFF00BF0837FE
:10057000BD4680BD80010020500200208C0100207B
:1005800080B582B000AF0A4B1B783B71094B1B78DA
:100590007B71094B1B78BB71084B99783B1D04227A
:1005A0001846FFF791FF00BF0837BD4680BD00BF6A
:1005B00080010020500200203A0000208C01002021
:1005C0002DE9F04F91B004AF754B1B78512B00F023
:1005D000DF80744B1B79FB62724B5B791802714BA5
:1005E0009B790344BB626F4BDB7987F827306D4BF7
:1005F0001B7ADBB24FF000044FEA036B4FF0000AA6
:10060000C7E906AB674B5B7ADBB24FF000041B0413
:100610007B6100233B61D7E90634D7E904AB1AEBD1
:10062000030A4BEB040B53465C46C7E906345D4BAB
:100630009B7ADBB24FF000041B02FB600023BB601F
:10064000D7E90634D7E902AB1AEB030A4BEB040BEC
:1006500053465C46C7E90634524BDB7ADBB24FF0B7
:1006600000041B007B6000233B60D7E90634D7E918
:1006700000AB1AEB030A4BEB040B53465C46C7E98D
:100680000634484B1B7BDBB24FF000044FEA046991
:1006900049EA13294FEA0368D7E9063413EB080344
:1006A00044EB0904C7E906343E4B5B7BDBB24FF0F9
:1006B0000004260446EA13461D04D7E906345B19F4
:1006C00044EB0604C7E90634364B9B7BDBB24FF0A4
:1006D0000004220242EA13621902D7E906345B18C9
:1006E00044EB0204C7E906342E4BDB7BDBB24FF050
:1006F0000004D7E906125B1844EB0204C7E906348C
:10070000284BDB78013B032B3ED801A252F823F0A3
:10071000210700083B070008550700086F0700087D
:1007200097F8272000230293D7E90634CDE9003457
:10073000B96AF86A03F02CFC2AE097F82720002316
:100740000293D7E90634CDE90034B96AF86A03F0B8
:1007500083FC1DE097F8272000230293D7E9063495
:10076000CDE90034B96AF86A03F0D8FC10E097F8D4
:10077000272000230293D7E90634CDE90034B96A73
:10078000F86A03F02DFD03E0074B32221A7000BF18
:10079000FFF7DCFE00BF3437BD46BDE8F08F00BF79
:1007A000800100208C0100205002002090B589B00B
:1007B00004AF314B1B78512B58D0304B1B79FB6069
:1007C0002E4B5B791B022D4A92791344BB602B4B55
:1007D000DB79FB71294BDB78013B032B42D801A26B
:1007E00052F823F0F5070008110800082D0800084A
:1007F00049080008FA79012302934FF000034FF0F3
:100800000004CDE90034B968F86803F0C1FB2DE0BD
:10081000FA79012302934FF000034FF00004CDE971
:100820000034B968F86803F017FC1FE0FA79012377
:1008300002934FF000034FF00004CDE90034B96893
:10084000F86803F06BFC11E0FA79012302934FF092
:1008500000034FF00004CDE90034B968F86803F0F4
:10086000BFFC03E0064B32221A7000BFFFF76EFE9A
:1008700000BF1437BD4690BD800100208C010020D0
:10088000500200202DE9F04F8FB000AF4A4B1B788B
:10089000512B00F08980484B1B7887F82430474B58
:1008A0001B7887F825304FF000034FF00004C7E9AC
:1008B0000C34434BDB78013B032B1FD801A252F8C9
:1008C00023F000BFD5080008DF080008E908000889
:1008D000F308000803F0E6FCC7E90C0112E003F09E
:1008E000F7FCC7E90C010DE003F006FDC7E90C01B8
:1008F00008E003F015FDC7E90C0103E02F4A32239D
:10090000137000BFD7E90C34230EBB610023FB61D9
:100910003B7E87F82630D7E90C34230C3B6100235B
:100920007B613B7C87F82730D7E90C34230ABB6016
:100930000023FB603B7A87F82830D7E90C3423008A
:100940003B6000237B603B7887F82930D7E90C3483
:100950004FEA136A4AEA042A4FEA146B5FFA8AF3F1
:1009600087F82A30D7E90C344FEA134848EA04489C
:100970004FEA14495FFA88F387F82B30D7E90C3433
:100980001D0A45EA0465260AEBB287F82C3097F871
:10099000303087F82D300A4B997807F124030B2269
:1009A0001846FFF791FD01E0FFF7D0FD00BF3C378F
:1009B000BD46BDE8F08F00BF80010020500200203E
:1009C0008C01002080B582B000AF134B1B78512BF7
:1009D0001CD0124B5B799AB2104B1B799BB21B0255
:1009E0009BB21344FB800D4BDB78FA881146184606
:1009F00000F058FD034683F00103DBB2002B02D068
:100A0000074B32221A7000F00DF801E0FFF79EFD4F
:100A100000BF0837BD4680BD800100208C0100204A
:100A20005002002080B582B000AF414B1B78512BA3
:100A300077D03F4B1B783B713E4B1B787B7100237B
:100A4000BB714FF400613C4804F070F80346002B82
:100A500004D0BB7943F00103DBB2BB714FF480617A
:100A6000354804F063F80346002B04D0BB7943F00B
:100A70000203DBB2BB714FF400712F4804F056F84B
:100A80000346002B04D0BB7943F00403DBB2BB71F7
:100A90004FF48071284804F049F80346002B04D035
:100AA000BB7943F00803DBB2BB714FF4004123482C
:100AB00004F03CF80346002B04D0BB7943F010034C
:100AC000DBB2BB714FF480411C4804F02FF80346A1
:100AD000002B04D0BB7943F02003DBB2BB714FF491
:100AE0000051164804F022F80346002B04D0BB79CD
:100AF00043F04003DBB2BB714FF480510F4804F068
:100B000015F80346002B04D0BB7963F07F03DBB2FA
:100B1000BB710B4B99783B1D04221846FFF7D4FCA0
:100B200001E0FFF713FD00BF0837BD4680BD00BFE1
:100B30008001002050020020000C0240000402400E
:100B40008C01002080B582B000AF374B1B783B7121
:100B5000364B1B787B710023BB710023FB71344B38
:100B60001B78002B04D0FB7943F00103DBB2FB714F
:100B7000304B1B78002B04D0FB7943F00203DBB22F
:100B8000FB712D4B1B78002B04D0FB7943F0040341
:100B9000DBB2FB71294B1B78002B04D0FB7943F0AF
:100BA0000803DBB2FB71264B1B78002B04D0FB79CA
:100BB00043F01003DBB2FB71224B1B78002B04D0F7
:100BC000FB7943F02003DBB2FB711F4B1B78002B3A
:100BD00004D0FB7943F04003DBB2FB711B4B1B7865
:100BE000002B04D0FB7963F07F03DBB2FB71184B61
:100BF0001B78002B04D0BB7943F00103DBB2BB713F
:100C0000144B1B78002B04D0BB7943F00203DBB2FA
:100C1000BB71114B99783B1D05221846FFF754FC18
:100C200000BF0837BD4680BD800100205002002073
:100C3000D5000020DA000020E8000020D8000020C5
:100C4000F8000020E00000201C0200201402002018
:100C500058020020D10000208C01002080B500AF98
:100C6000044B1B78512B01D002F088FEFFF76EFC7D
:100C700000BF80BD8001002080B500AF044B1B7811
:100C8000512B01D002F090FEFFF760FC00BF80BD49
:100C90008001002080B500AF1B4B1B78512B2ED05C
:100CA000194B32221A70194B00221A70184BDB783C
:100CB0001B061A46174B1A60164B1B68144A12790A
:100CC00012041344134A1360124B1B68104A5279E2
:100CD000120213440F4A13600E4B1B680C4A9279A0
:100CE00013440C4A13600A4BDA790A4B1A71084B09
:100CF0001A7A084B5A71064B5A7A064B9A71FFF7CB
:100D000025FC00BF80BD00BF800100208E000020B8
:100D10008C010020F000002080B582B000AF0023DD
:100D2000FB800023BB8000237B80144B5B78062B69
:100D300018D1124BDB789BB21B02FB800F4B1B7947
:100D40009AB2FB881344FB800C4B5B799BB21B026D
:100D5000BB800A4B9B799AB2BB881344BB80074B7C
:100D6000DB797B807A88B988FB88184601F028FEF9
:100D7000FFF7ECFB00BF0837BD4680BD8C010020AB
:100D800080B500AF01F0B0FEFFF7E0FB00BF80BD13
:100D900080B500AF034BDA78034B1A70FFF7D6FB30
:100DA00000BF80BD8C0100208400002080B500AF12
:100DB00001F0BEFEFFF7CAFB00BF80BD80B500AFEB
:100DC000FFF7C4FBFEE700BF80B58AB000AF7860D4
:100DD000396000237B6200233B620023FB61002318
:100DE000BB617B681B8A9BB27B627B6A23F44053A6
:100DF0007B623B68DB881A467B6A13437B627B6AB3
:100E00009AB27B681A827B689B899BB27B627B6A01
:100E100023F4B05323F00C037B623B689A883B6851
:100E20001B8913439AB23B685B8913439BB21A46F2
:100E30007B6A13437B627B6A9AB27B689A817B6888
:100E40009B8A9BB27B627B6A23F440737B623B6824
:100E50009B891A467B6A13437B627B6A9AB27B68E2
:100E60009A8207F10803184601F09CFF7B68304A1C
:100E7000934203D07B682F4A934202D17B693B6245
:100E800001E03B693B627B689B899BB21BB2002BF4
:100E90000CDA3A6A13469B0013449A001A443B68E2
:100EA0001B685B00B2FBF3F3FB610BE03A6A13468D
:100EB0009B0013449A001A443B681B689B00B2FBDA
:100EC000F3F3FB61FB691C4AA2FB03235B091B01D3
:100ED0007B627B6A1B09642202FB03F3FA69D31A63
:100EE000BB617B689B899BB21BB2002B0CDABB6990
:100EF000DB003233104AA2FB03235B0903F0070334
:100F00007A6A13437B620BE0BB691B0132330A4AE6
:100F1000A2FB03235B0903F00F037A6A13437B628E
:100F20007B6A9AB27B681A8100BF2837BD4680BDB4
:100F300000100140001401401F85EB5180B483B0C4
:100F400000AF78607B684FF416521A607B6800220D
:100F50009A807B680022DA807B6800221A817B6895
:100F60000C225A817B6800229A8100BF0C37BD4653
:100F700080BC704780B483B000AF78600B46FB70D4
:100F8000FB78002B08D07B689B899BB243F400530D
:100F90009AB27B689A8107E07B689B899BB223F4B5
:100FA00000539AB27B689A8100BF0C37BD4680BC63
:100FB000704700BF80B483B000AF78600B467B8081
:100FC00013467B707B78002B08D07B689B8A9AB293
:100FD0007B8813439AB27B689A8209E07B689B8A7C
:100FE0009AB27B88DB439BB213409AB27B689A82A9
:100FF00000BF0C37BD4680BC704700BF80B487B0CF
:1010000000AF78600B467B8013467B7000233B610A
:101010000023FB600023BB6000237B617B687B6156
:101020007B88DBB25B09DBB23B617B8803F01F038B
:10103000FB600122FB6802FA03F3BB603B69012BF2
:1010400003D17B690C337B6109E03B69022B03D13F
:101050007B6910337B6102E07B6914337B617B78B1
:10106000002B06D07B697A691168BA680A431A6056
:1010700006E07B697A691168BA68D2430A401A604F
:1010800000BF1C37BD4680BC704700BF80B487B02E
:1010900000AF78600B467B800023FB6000237B6100
:1010A0000023BB600023FB747B88DBB25B09DBB2EF
:1010B000BB607B8803F01F037B6101227B6902FA1E
:1010C00003F37B61BB68012B07D17B689B899BB2D3
:1010D0001A467B6913407B6111E0BB68022B07D184
:1010E0007B681B8A9BB21A467B6913407B6106E0D2
:1010F0007B689B8A9BB21A467B6913407B617B8825
:101100001B0A9BB2FB600122FB6802FA03F3FB603F
:101110007B681B889BB21A46FB681340FB607B69A7
:10112000002B05D0FB68002B02D00123FB7401E0EB
:101130000023FB74FB7C18461C37BD4680BC7047FF
:1011400080B485B000AF78600B467B800023FB81C4
:101150000023BB817B881B0AFB81FB89012202FAE9
:1011600003F3BB81BB89DB439AB27B681A8000BF63
:101170001437BD4680BC704780B582B000AF0121F6
:10118000082001F0B9FE01233B710023BB7100234D
:10119000FB7100237B714FF470433B603B46194663
:1011A000034803F01BFC00BF0837BD4680BD00BFED
:1011B000000C024080B500AF0B4B5A780B4B1A70F5
:1011C000094B9A780A4B1A70074BDA78094B1A7058
:1011D00005220021044804F09FFB074B42F21072E5
:1011E0001A6000BF80BD00BFC80200203A00002086
:1011F0003B0000203C0000207C00002080B485B033
:1012000000AF78600B46FB700023FB730123BB73B8
:1012100009E0BB7B7A6813441A78FB7B5340FB736D
:10122000BB7B0133BB73BA7BFB789A42F1D3FB7B68
:1012300018461437BD4680BC704700BF80B485B0E7
:1012400000AF78600023FB7309E0FB7BFA7B7968D1
:101250000A441178094AD154FB7B0133FB73FB7BB1
:10126000042BF2D9064B01221A70064B00221A6099
:1012700000BF1437BD4680BC704700BFC8020020C5
:10128000390000206800002080B500AF0522002151
:10129000024804F041FB00BF80BD00BFD002002027
:1012A00080B584B000AF7860FFF7EEFF134B0222E9
:1012B0001A700023FB730AE0FB7B0133FA7B796829
:1012C0000A4411780D4AD154FB7B0133FB73FB7B3D
:1012D000022BF1D904210948FFF790FF03461A4673
:1012E000064B1A7103F002F905220021044804F0AC
:1012F00013FB00BF1037BD4680BD00BFD0020020E9
:10130000C802002080B582B000AF0A4B1B783B7149
:10131000094B1B787B71094B1B78BB713B1D184631
:10132000FFF7BEFF064B4FF47A721A6000BF083712
:10133000BD4680BD8400002085000020860000207E
:101340006800002080B582B000AF0121082001F0C4
:10135000D3FD0121022001F0CFFD0121102001F079
:10136000CBFD01233B710023BB710023FB710023E4
:101370007B714FF400633B603B4619463F4803F0E6
:101380002DFB4FF400613D4803F0F8FB4FF4806300
:101390003B603B461946394803F020FB4FF480611F
:1013A000364803F0EBFB4FF400733B603B461946B5
:1013B000324803F013FB4FF40071304803F0DEFBBA
:1013C0004FF480733B603B4619462C4803F006FB04
:1013D0004FF48071294803F0D1FB4FF400433B6088
:1013E0003B461946264803F0F9FA4FF400412448D9
:1013F00003F0C4FB4FF480433B603B461946204852
:1014000003F0ECFA4FF480411D4803F0B7FB4FF4B2
:1014100000533B603B461946194803F0DFFA4FF48E
:101420000051174803F0AAFB4FF480533B603B4642
:101430001946134803F0D2FA4FF48051104803F0D4
:101440009DFB104B00221A600F4B00221A600F4BBD
:1014500000221A600E4B00221A600E4B00221A6006
:101460000D4B00221A600D4B00221A600C4B00221B
:101470001A6000BF0837BD4680BD00BF000C0240A7
:101480000004024084010020EC00002054020020EF
:10149000DC0000201802002098000020E40000205A
:1014A0007C01002080B582B000AF03460A46FB7184
:1014B0001346BB80FB79013B072B5BD801A252F896
:1014C00023F000BFE5140008F71400080915000810
:1014D0001B1500082D1500083F15000851150008C0
:1014E000631500084FF40061264803F039FBBB8800
:1014F000254A136040E04FF48061224803F030FB3E
:10150000BB88224A136037E04FF400711D4803F096
:1015100027FBBB881E4A13602EE04FF480711948E8
:1015200003F01EFBBB881B4A136025E04FF400410B
:10153000194803F015FBBB88184A13601CE04FF4F0
:101540008041154803F00CFBBB88154A136013E07B
:101550004FF40051104803F003FBBB88114A13609D
:101560000AE04FF480510C4803F0FAFABB880E4AA7
:10157000136001E0002300E0012318460837BD4650
:1015800080BD00BF000C024084010020EC00002060
:1015900054020020DC000020000402401802002059
:1015A00098000020E40000207C01002080B500AFFE
:1015B000484B1B68002B0DD0464B1B68013B454A2E
:1015C0001360444B1B68002B04D14FF40061424868
:1015D00003F0D4FA414B1B68002B0DD03F4B1B6826
:1015E000013B3E4A13603D4B1B68002B04D14FF476
:1015F0008061394803F0C2FA394B1B68002B0DD0CB
:10160000374B1B68013B364A1360354B1B68002B78
:1016100004D14FF40071304803F0B0FA314B1B682D
:10162000002B0DD02F4B1B68013B2E4A13602D4B16
:101630001B68002B04D14FF48071274803F09EFAF9
:10164000294B1B68002B0DD0274B1B68013B264AFA
:101650001360254B1B68002B04D14FF40041234835
:1016600003F08CFA224B1B68002B0DD0204B1B681B
:10167000013B1F4A13601E4B1B68002B04D14FF423
:1016800080411A4803F07AFA1A4B1B68002B0DD0E0
:10169000184B1B68013B174A1360164B1B68002B45
:1016A00004D14FF40051114803F068FA124B1B6843
:1016B000002B0DD0104B1B68013B0F4A13600E4BE3
:1016C0001B68002B04D14FF48051084803F056FAF0
:1016D00000BF80BD84010020000C0240EC0000200F
:1016E00054020020DC000020180200200004024008
:1016F00098000020E40000207C01002080B582B02A
:1017000000AF104B7B60104B3B6007E03B681A1D3D
:101710003A607A68111D796012681A603B680B4A5A
:101720009342F3D30A480B494FF000028842B8BFF6
:1017300040F8042BFADB01F075FA00BF0837BD460C
:1017400080BD00BFB4590008000000203400002014
:1017500038000020F003002080B400AFFEE700BF97
:1017600080B483B000AF0346FB80044AFB8813605B
:1017700000BF0C37BD4680BC704700BF0030004042
:1017800080B483B000AF0346FB71044AFB79536019
:1017900000BF0C37BD4680BC704700BF0030004022
:1017A00080B483B000AF0346FB80044AFB8893609B
:1017B00000BF0C37BD4680BC704700BF0030004002
:1017C00080B400AF034B4AF6AA221A6000BFBD46A0
:1017D00080BC70470030004080B400AF034B4CF633
:1017E000CC421A6000BFBD4680BC7047003000404C
:1017F00080B483B000AF0346FB71084997F9073006
:101800005B09FA7902F01F02012000FA02F241F8A6
:10181000232000BF0C37BD4680BC704700E100E0CC
:1018200080B500AF01214FF4001001F065FB214BA2
:101830004FF000621A601F4B1F4A5A601F4A1D4B2F
:101840009A601C4B4022DA601A4B80221A61194BB5
:1018500000225A61174B4FF480629A61154B0022A7
:10186000DA61144B00221A62124B00225A62114BA9
:101870004FF480329A620F4B0022DA620D4B002245
:101880001A630C4B00225A630A4B00229A630949DF
:101890000B4803F0EDFA012280210A48FFF78AFB8A
:1018A0000E20FFF7A5FF01221021054803F08CFB55
:1018B00000BF80BD5803002004480040FC00002009
:1018C000586002400048004080B586B000AF4FF439
:1018D0001653BB600023BB810023FB8100233B82A6
:1018E0000023BB820C237B820121022001F004FB38
:1018F00001214FF4802001F01DFB07220A2120481E
:1019000003F04AF907220B211D4803F045F9002393
:10191000BB710123FB7102233B714FF480633B6079
:1019200002237B713B461946154803F057F8022302
:101930003B714FF400633B603B461946104803F08F
:101940004DF807F108031846FFF7F8FA07F1080306
:1019500019460C48FFF738FA01210A48FFF70AFB3D
:101960002720FFF745FF012240F225510548FFF7E8
:1019700045FBFFF755FF00BF1837BD4680BD00BFD0
:10198000000402400048004080B582B000AF03462A
:10199000FB71FB79064A13610549064803F068FAB2
:1019A0000121044803F0BAFA00BF0837BD4680BDE4
:1019B000580300205860024080B500AF802200210B
:1019C000034803F0A9FF034B00221A7000BF80BD3B
:1019D000D80200203D00002090B583B000AF3F4BFF
:1019E0001B889BB203F02003002B73D03B4B9B88DA
:1019F0009BB2FB71FB79022B12D1394B1B78022B66
:101A00000ED0FFF7D9FF374B1B781946344AFB79C4
:101A10005354344B1B780133DAB2324B1A7056E010
:101A20002F4B1B78022B52D12E4B1B785BB2002B15
:101A300005DB2C4B1B781946294AFB795354294B5B
:101A40001B78012B06D1274B1B781A46244B9A5C36
:101A5000254B1A70234B1B781A46234B1B780233F5
:101A60009A4213D11F4B1B781A461D4B9C5C1D4B91
:101A70001B7819461A48FEF787FB03469C4220D183
:101A80001748FEF7B9FBFFF797FF1AE0154B1B78D5
:101A90001A46154B1B7803339A4212D1114B1B780F
:101AA000013B0F4AD35C132B0BD10E4B1B781A460C
:101AB0000B4B9B5C5D2B04D10948FEF79DFBFFF7A8
:101AC0007BFF084B1B780133DAB2064B1A70074BC9
:101AD0000F221A6000BF0C37BD4690BD0048004081
:101AE000D80200203D0000203E00002064000020BD
:101AF00080B500AF1A491B4803F0A0FA0346012B3A
:101B000005D11749174803F0EFFAFEF75DFB1649B8
:101B1000144803F093FA0346012B05D112491148EA
:101B200003F0E2FAFEF750FB10490E4803F086FA84
:101B30000346012B05D10D490A4803F0D5FAFEF7FB
:101B400043FB0B49074803F079FA0346012B05D103
:101B50000749044803F0C8FAFEF736FB00BF80BD12
:101B6000008000185860024000400014001000116E
:101B70000000409090B585B004AF524B1B78002B0D
:101B800074D0514B1B78002B70D0504B1B7883F0D6
:101B90000103DBB2002B0ED04D4B1B68002B08D18C
:101BA0004C4B1B7883F00103DBB2002B01D001F01A
:101BB000E5FE002382E0464B1B68002B07D1454B16
:101BC0001B78002B03D001F0EFFE002376E0424BA0
:101BD0001B7883F00103DBB2002B12D03F4B93F84C
:101BE0002830002B0DD1012302934FF000034FF05A
:101BF0000004CDE90034012241F288310E2002F0C8
:101C00002BFA374B1B7883F00103DBB2002B12D089
:101C1000344B93F82830002B0DD1012302934FF061
:101C200000034FF00004CDE90034012241F2883175
:101C30000E2002F073FA2C4B1B7883F00103DBB209
:101C4000002B1DD0294B93F82830002B18D10123ED
:101C500002934FF000034FF00004CDE9003401225D
:101C600041F288310B2002F0BBFA09E000F064FE7B
:101C70001F4B41221A701F4B43221A7001231DE093
:101C800000BF124B1B78002B17D0134B1B78002B77
:101C900013D0134B1B78002B0FD0134B1B78002B4A
:101CA0000BD0154B1B78002B07D0114B30221A702C
:101CB000104B00221A70012300E00023184604375D
:101CC000BD4690BD1C02002014020020DA00002056
:101CD000600000208C000020D8000020200200209E
:101CE000F80000206002002058020020A000002020
:101CF0008001002050020020D100002090B585B066
:101D000004AF954B1B78002B14D1944B53221A70BF
:101D1000934B1B78002B00F0BD82924B1B68002B6D
:101D200040F0B882904B1B78002B00F0B38201F09A
:101D30003BFEAFE2884B1B78053B042B00F2CD81C4
:101D400001A252F823F000BF9B1D0008451E0008A9
:101D5000731E0008951F00085D1D0008834B93F853
:101D60002830002B07D1824B93F82830002B02D16A
:101D7000794B05221A707A4B1B78002B00F0A48156
:101D8000784B1B68002B40F09F81774B1B78002B12
:101D900000F09A8101F008FE96E1764B1B78002B4B
:101DA00043D0754B1B7883F00103DBB2002B12D0BC
:101DB0006F4B93F82830002B0DD1012302934FF085
:101DC00000034FF00004CDE90034012241F28831D4
:101DD0000B2002F005FA4FF40041684802F0C0FE03
:101DE0004FF48041654802F0BBFE4FF40051634858
:101DF00002F0B6FE4FF48051604802F0B1FE594B3C
:101E00001B68002B08D1584B1B7883F00103DBB211
:101E1000002B01D001F0B2FD534B1B78002B00F0DA
:101E200055814D4B06221A7050E14E4B1B68002B1A
:101E300040F04C814C4B1B78002B00F0478101F0A7
:101E4000B3FD43E14E4B1B78002B00F041814D4B1D
:101E50001B684FF0000400220292CDE900340022FA
:101E600041F288310E2002F0F7F83B4B07221A703E
:101E700033E1454BD3E9003442F6FE114FF0000246
:101E8000A24208BF994209D24FF480413B4802F078
:101E900075FE4FF48051394802F070FE3A4B93F8CA
:101EA0002830002B0ED14FF48041344802F066FEFA
:101EB0004FF40051314802F061FE4FF480512F4839
:101EC00002F05CFE2E4B1B7883F00103DBB2002B8B
:101ED00012D02E4B93F82830002B0DD10023029303
:101EE00046F678134FF00004CDE90034002241F2A9
:101EF00088310E2002F012F9254B1B78002B00F0E0
:101F0000E9804FF480411D4802F038FE4FF4005143
:101F10001A4802F033FE4FF48051184802F02EFEAA
:101F20004FF40041154802F029FE184B93F8283071
:101F3000002B0DD10023029346F678134FF00004D6
:101F4000CDE90034002241F288310E2002F0E6F89B
:101F5000014B08221A70BDE0F9000020800100202A
:101F6000DA000020600000208C0000209802002091
:101F7000A0000020D10000205802002000040240F0
:101F8000D500002000000020200200206002002078
:101F9000E8000020AC4B1B7883F00103DBB2002B80
:101FA00019D0AA4B93F82830002B14D1A84B1B78DA
:101FB00083F00103DBB2002B0DD0012302934FF01D
:101FC00000034FF00004CDE90034012241F28831D2
:101FD0000E2002F041F89F4B93F82830002B14D1CB
:101FE0009D4B1B7883F00103DBB2002B0DD0012346
:101FF00002934FF000034FF00004CDE900340122BA
:1020000041F288310E2002F089F88F4B1B7883F063
:102010000103DBB2002B16D0904B93F82830002B35
:1020200011D18F4B1B78002B0DD0002302934AF265
:1020300048334FF00004CDE90034002241F28831EA
:102040000B2002F0CDF8874B1B68002B0FD0864B7E
:102050001B7883F00103DBB2002B08D0824B0122F6
:102060001A70824B00221A70814B00221A60814B39
:102070001B78002B09D0804B1B68002B05D17F4BB0
:102080001B78002B01D001F08FFC6F4B1B7883F085
:102090000103DBB2002B1FD06D4B1B78002B1BD034
:1020A0006D4B1B78002B17D06C4B93F82830002B0E
:1020B00012D16D4B1B7883F00103DBB2002B0BD0E8
:1020C0006F4B00221A7007E000BF06E000BF04E07B
:1020D00000BF02E000BF00E000BF634B1B78002B95
:1020E00000F0DD80614B1B78012B57D0022B00F0F4
:1020F0008A80002B00D0D2E05D4B1B68002B14D1EE
:102100004FF480615F4802F02BFD4FF400715D4891
:1021100002F026FD5C4B1B7883F00103DBB2002B41
:1021200036D0534B00221A6032E0514B1B68642BAF
:102130000ED14C4B1B684FF0000400220292CDE9F7
:102140000034012241F288310B2001F021FF1FE011
:10215000474B1B68642B1BD94C4BD3E9003441F22D
:1021600088314FF00002A24208BF994210D23F4B83
:1021700001221A704FF48061424802F0FFFC4FF4D4
:102180000071404802F0FAFC394B00221A6086E0E8
:10219000374B1B680133364A136080E03B4B93F8A2
:1021A0002830002B78D1324B1B68002B05D14FF41F
:1021B0008071344802F0D4FC1FE02D4B1B68962B35
:1021C00005D14FF400612F4802F0CAFC15E0284BFE
:1021D0001B68B3F5967F10D12D4B1B684FF00004A0
:1021E00000220292CDE90034012241F288310B2015
:1021F00001F0CEFE1D4B02221A701D4B1B680133ED
:102200001B4A13604BE0214BD3E90034204A12688B
:10221000520811464FF00002A24208BF99423DD237
:102220004FF40061174802F0A9FC4FF48071154883
:1022300002F0A4FC0C4B00221A700A4B00221A6018
:10224000134B00221A6029E0E80000202002002041
:10225000D800002060020020F8000020A00000202C
:1022600058020020480000205000002051000020AB
:1022700040000020DA000020600000208C000020D8
:10228000F9000020000C0240E0000020980200202D
:102290004C00002000BF02E000BF00E000BF043798
:1022A000BD4690BD80B483B000AF03463960FB717A
:1022B00097F90730002B0BDA0D49FB7903F00F0378
:1022C000043B3A68D2B21201D2B20B441A7609E04A
:1022D000084997F907303A68D2B21201D2B20B44DA
:1022E00083F8002300BF0C37BD4680BC704700BF99
:1022F00000ED00E000E100E080B582B000AF786062
:102300007B68B3F1807F01D3012311E00A4A7B6827
:1023100023F07F43013B53600F214FF0FF30FFF765
:10232000C1FF054B00229A60034B07221A6000236D
:1023300018460837BD4680BD10E000E098B500AFF4
:10234000884B1B7883F00103DBB2002B06D1864B50
:102350001B7883F00103DBB2002B07D001F0A2FF52
:10236000824B41221A70824B43221A70814B93F8A0
:102370002830002B16D0804B1B78002B12D07D4BC1
:10238000D3E9003446F2A8114FF00002A24208BF80
:10239000994207D201F09CFF744B41221A70744B92
:1023A00052221A70754B93F82830002B16D0744BBC
:1023B0001B78002B12D0714BD3E900344FF6E85153
:1023C0004FF00002A24208BF994207D201F094FFE9
:1023D000664B41221A70664B53221A70694B93F870
:1023E0002830002B16D0684B1B78002B12D0654B81
:1023F000D3E900344BF680314FF00002A24208BF0F
:10240000994207D201F08CFF584B41221A70584B69
:1024100054221A704FF480715C4802F087FB034627
:10242000002B13D05A4B1B78002B0FD0594B1B6835
:10243000013B584A1360574B1B68002B31D14B4B63
:1024400041221A704A4B66221A702AE04FF48061CA
:102450004E4802F06BFB0346002B1ED04FF4007178
:102460004A4802F063FB0346002B16D0484B1B780A
:1024700083F00103DBB2002B0FD0464B1B68013BFE
:10248000444A1360434B1B68002B0AD1374B41224F
:102490001A70374B66221A7003E03E4B4FF47A7283
:1024A0001A60324B1B78312B0CD13B4B1B7883F0DD
:1024B0000103DBB2002B05D02C4B41221A702C4BB0
:1024C00060221A70354B1B78002B07D0344B1B78D9
:1024D000002B0BD1334B1B78002B07D1304B1B78D3
:1024E000002B09D02F4B1B78002B05D01F4B41220E
:1024F0001A701F4B45221A70294B1B78002B0CD0E9
:10250000294B1B78012B05D1184B41221A70184B0F
:1025100063221A70244B02221A70204B1B78002B66
:102520000CD0214B1B78032B05D1104B41221A7084
:102530000F4B62221A701C4B01221A70194B1B7828
:10254000002B0CD0184B1B78022B05D1074B4122D6
:102550001A70074B61221A70134B03221A7000BFC6
:1025600098BD00BF1C020020140200208001002042
:102570005002002020020020D9000020600200202C
:10258000D4000020A000002088010020000C0240A0
:10259000E000002008000020D1000020D50000202D
:1025A000DA000020E80000208700002090B585B008
:1025B00004AF00F0F3FDFEF7F9FFA94B1B68002BF9
:1025C00005D0A74B1B68013BA54A136001E0FFF74C
:1025D000B5FEA44B1B68002B04D0A24B1B68013B2B
:1025E000A04A1360A04B1B68002B0AD09E4B1B68AF
:1025F000013B9D4A13609C4B1B68002B01D102F0EC
:1026000037F99A4B1B68002B0BD0984B1B68013B8A
:10261000964A1360954B1B68002B02D1944BF02215
:102620001A70944B1B68002B0AD0924B1B68013B1D
:10263000904A13608F4B1B68002B01D1FFF7BCF948
:102640008D4B1B68002B0AD08B4B1B68013B8A4AC1
:102650001360894B1B68002B01D1FEF753FE874B9B
:102660001B68002B0AD0854B1B68013B834A136013
:10267000824B1B68002B01D101F048FF804B1B6887
:10268000002B0AD07E4B1B68013B7D4A13607C4BBC
:102690001B68002B01D1FEF735FE7A4B1B78313BCE
:1026A000222B00F23A8101A252F823F039270008C8
:1026B0001B2900081B2900081B2900081B290008EA
:1026C0001B2900081B2900081B2900081B290008DA
:1026D0001B2900081B2900081B2900081B290008CA
:1026E0001B2900081B2900081B2900081B290008BA
:1026F0001B2900081B2900081B2900081B290008AA
:102700001B2900081B2900081B2900081B29000899
:102710001B2900081B2900081B2900081B29000889
:102720001B2900081B2900081B290008D9270008BD
:10273000E5270008DF270008534B1B78502B02D0F9
:10274000512B26D0E9E0514B1B68002B04D04F4B96
:102750001B68013B4D4A13604C4B1B68002B08D192
:1027600000F0EAF8474B41221A70494B41221A7097
:102770002EE001F0A3F80346002B29D0424B512252
:102780001A70434B00221A70424B42F210721A60C8
:102790001EE0404B1B68002B04D03E4B1B68013BE6
:1027A0003C4A13603B4B1B68002B08D100F0C4F877
:1027B000344B41221A70364B42221A700AE0FFF75E
:1027C000D9F90346002B05D0324B00221A6001E0F4
:1027D00000BFA2E000BFA0E0FFF790FA9DE0FFF786
:1027E0008DFA9AE02C4B1B78012B1FD0022B77D04F
:1027F000002B00D090E0294B93F82830002B0ED10D
:102800000023029342F210734FF00004CDE900342C
:10281000012241F288310B2001F0BAFB7CE01E4B13
:1028200001221A701E4B00221A6075E01B4B93F8B0
:102830002830002B6DD11A4B1B68002B05D14FF4AB
:102840008071184802F08CF944E0154B1B68962BF8
:102850002AD14FF40061134802F082F93AE000BF38
:102860000C000020540000205800002060000020D0
:102870008E00002064000020680000205C00002022
:102880007C00002080010020F900002004000020CE
:10289000500200206C0000208800002098020020D8
:1028A00080000020000C02401E4B1B68B3F5967F91
:1028B00010D10023029343F698234FF00004CDE992
:1028C0000034012241F288310B2001F061FB164BEC
:1028D00002221A70134B1B680133124A13601BE06B
:1028E000124BD3E9003442F210714FF00002A242C1
:1028F00008BF99420FD24FF400610D4802F03EF933
:102900004FF480710A4802F039F90A4B30221A70EC
:1029100001E000BF00E000BF00BF00BF0437BD46BC
:1029200090BD00BF80000020880000209802002099
:10293000000C02408001002080B500AF1C4802F06E
:1029400009FB0346002B01D101F02EF84FF4006182
:10295000184802F013F94FF48061164802F00EF99E
:102960004FF40071134802F009F94FF480711148D7
:1029700002F004F94FF400410F4802F0FFF84FF461
:1029800080410D4802F0FAF84FF400510A4802F075
:10299000F5F84FF48051084802F0F0F801F082FC9D
:1029A00001F096FC01F0A8FC01F0BAFC00BF80BD6C
:1029B000A0600240000C0240000402400000000041
:1029C00090B583B000AF0346FB800B46BB80134637
:1029D0007B803F4B1B78302B03D03D4B1B78532B18
:1029E0006BD1FB88002B38D0BB88002B35D07B887F
:1029F000002B32D0FA887B885B00134464331A467C
:102A0000344B1A60334B1B68642202FB03F31846F5
:102A100002F0DAFC2CA3D3E9002302F04BFD0346BD
:102A20000C461846214602F057FF0246294B1A6011
:102A3000284B1B68B3F57A4F03D9264B4FF47A42E3
:102A40001A60244B1B68C3F5803303F5E8735B08F9
:102A500003F24C43204A136005E01E4B00221A602B
:102A60001D4B00221A60FB88002B0ED0FB885B08F0
:102A70009BB2C3F5847201321346DB0013441B0181
:102A80009B1A1A46154B1A6003E0144B45F2FC32B0
:102A90001A60124B1B6845F2FC32934203D90F4B6C
:102AA00045F2FC321A600E4B41F288321A600D4B2F
:102AB00009221A70064B51221A7000BF0C37BD460E
:102AC00090BD00BFAFF300809A9999999999F13F11
:102AD00080010020480000204C0000200000002061
:102AE00074000020F900002080B400AF0B4B1B786D
:102AF000512B0ED00A4B00221A700A4B00221A707A
:102B0000094B00221A70054B31221A70074B5022D4
:102B10001A7000BFBD4680BC704700BF8001002016
:102B20008E0000208F00002050020020F9000020BD
:102B300080B400AF0A4B1B78302B03D0084B1B78B6
:102B4000532B08D1074B00221A60074B00221A7042
:102B5000034B52221A7000BFBD4680BC704700BFB5
:102B600080010020800000208800002080B500AF98
:102B700002F05AF802F086F862B6FEF7FDFAFEF7A8
:102B8000E1FB00F02FFA00F059FF01F0EDFDFEF738
:102B90009BFE01F039FC104B00221A700120FEF759
:102BA000F3FE0E4B00229A710C4B40F68C221A60F9
:102BB0000A4B18221A71094B18225A71084B1B68CC
:102BC000084AA2FB03239B091846FFF795FB064B17
:102BD00010221A7000BF80BDFC000020F000002011
:102BE00020000020D34D62108001002080B500AF8E
:102BF000012000F0C7F800BF612000F0B9F90346DA
:102C0000002BF9D045F25550FEF7AAFD0320FEF740
:102C1000B7FD0A20FEF7C4FDFEF7D2FDFEF7DCFD8E
:102C200000BF80BD80B500AFFFF7E0FFFFF79EFF5C
:102C30004FF400414D4801F093FFFEF763FBFEF7B0
:102C4000BFFD4B4B1B78002B0FD04A4802F082F996
:102C50000346002B09D14FF0C051464802F086F9D7
:102C6000434B00221A70FDF7E9FA434B1B78002B07
:102C700004D000F0A7FD404B00221A703F4B1B7898
:102C8000002B04D03D4B00221A70FEF793FA01F09E
:102C900081F83B4B1B78302B03D0394B1B78532BDF
:102CA00013D14FF40041314801F068FF4FF4005157
:102CB0002E4801F063FF4FF480412C4801F05EFF85
:102CC0004FF48051294801F04BFF2D4B1B78512BBD
:102CD00013D14FF40041254801F050FF4FF400514B
:102CE000224801F03DFF4FF48041204801F046FFAB
:102CF0004FF480511D4801F041FF214B1B78412BBF
:102D000015D1FFF719FE4FF40041184801F036FFC6
:102D10004FF48051154801F031FF4FF40051134832
:102D200001F02CFF4FF48041104801F019FF144BC3
:102D30001B78312B04D0124B1B78322B7FF47FAFE2
:102D40004FF40041094801F00BFF4FF48051074850
:102D500001F014FF4FF40051044801F00FFF4FF44D
:102D60008041024801F00AFF69E700BF000C024001
:102D700038000020586002408D00002039000020FB
:102D80008001002080B483B000AF0346FB71044A89
:102D9000FB79136000BF0C37BD4680BC704700BF95
:102DA000800E474280B489B000AF78600023BB61D9
:102DB00000237B610023FB6102233B610023FB6056
:102DC0000223BB60484B9B6803F00C03BB61BB69EB
:102DD000042B07D0082B09D0002B3FD17B68434A36
:102DE0001A603FE07B68424A1A603BE03E4B5B68FA
:102DF00003F480039B0DFB603B4B5B6803F03F03D8
:102E0000BB60FB68002B0DD0394ABB68B2FBF3F204
:102E1000354B596847F6C0730B409B0903FB02F31F
:102E2000FB610CE0314ABB68B2FBF3F22E4B5968F0
:102E300047F6C0730B409B0903FB02F3FB612A4B6F
:102E40005B6803F440331B0C01335B003B61FA69A0
:102E50003B69B2FBF3F27B681A6003E07B68234AAC
:102E60001A6000BF204B9B6803F0F003BB61BB6995
:102E70001B09BB611F4ABB6913441B78DBB27B6132
:102E80007B681A687B69DA407B685A60164B9B68DE
:102E900003F4E053BB61BB699B0ABB61154ABB6984
:102EA00013441B78DBB27B617B685A687B69DA402C
:102EB0007B689A600C4B9B6803F46043BB61BB6901
:102EC0005B0BBB610B4ABB6913441B78DBB27B61B4
:102ED0007B685A687B69DA407B68DA6000BF243718
:102EE000BD4680BC704700BF003802400024F4009B
:102EF00000127A001000002080B483B000AF786028
:102F00000B46FB70FB78002B06D00949084B1A6B67
:102F10007B6813430B6306E00549054B1A6B7B681E
:102F2000DB4313400B6300BF0C37BD4680BC7047CA
:102F30000038024080B483B000AF78600B46FB706D
:102F4000FB78002B06D00949084B1A6C7B681343A9
:102F50000B6406E00549054B1A6C7B68DB431340A4
:102F60000B6400BF0C37BD4680BC70470038024080
:102F700080B487B000AF0346FB710023FB600023E1
:102F80007B610023FB74FB795B09DBB2FB60FB68B0
:102F9000012B03D1124B1B687B6109E0FB68022BFC
:102FA00003D10F4B1B6F7B6102E00D4B5B6F7B61AD
:102FB000FB7903F01F03FB607A69FB6822FA03F3D5
:102FC00003F00103002B02D00123FB7401E0002376
:102FD000FB74FB7C18461C37BD4680BC704700BFA5
:102FE0000038024080B582B000AF01210820FFF711
:102FF00083FF01210420FFF77FFF01210120FFF75C
:103000007BFF01210220FFF777FF01211020FFF74E
:1030100073FF00233B710023BB710023FB7100236E
:103020007B7102233B603B461946434801F0D6FCC6
:1030300001233B603B4619463F4801F0CFFC4FF46B
:1030400000633B603B4619463C4801F0C7FC4FF427
:1030500000433B603B461946394801F0BFFC4FF442
:1030600080733B603B461946344801F0B7FC40236F
:103070003B603B461946314801F0B0FC02233B60FF
:103080003B4619462D4801F0A9FC01233B603B4615
:1030900019462C4801F0A2FC02233B603B4619462E
:1030A000284801F09BFC4FF400733B603B461946F7
:1030B000254801F093FC254B0A221A70244B0A2262
:1030C0001A70244B0A221A70234B0A221A70234BBF
:1030D0000A221A70224B0A221A70224B0A221A70F4
:1030E000214B0A221A70214B0A221A70204B0A2205
:1030F0001A70204B00221A701F4B00221A701F4BAF
:1031000000221A701E4B00221A701E4B00221A70E9
:103110001D4B00221A701D4B00221A701C4B0022FE
:103120001A701C4B00221A701B4B00221A7000BF31
:103130000837BD4680BD00BF000C024000080240B9
:1031400000000240000402400010024090020020F3
:10315000D2000020D3000020D6000020D70000209D
:10316000520200209C000020E90000209D00002069
:10317000D0000020D5000020DA000020E800002068
:10318000D8000020F8000020E00000201C020020F1
:103190001402002058020020D100002080B500AFAA
:1031A0000221994801F0A8FC0346002B17D0974B49
:1031B0001B7883F00103DBB2002B24D0944B1B78E7
:1031C000013BDAB2924B1A70914B1B78002B1AD14B
:1031D0008E4B01221A708E4B0A221A7013E08B4B11
:1031E0001B78002B0FD08A4B1B78013BDAB2884B3F
:1031F0001A70874B1B78002B05D1844B00221A7064
:10320000834B0A221A7001217F4801F075FC0346A6
:10321000002B17D07F4B1B7883F00103DBB2002B10
:1032200024D07D4B1B78013BDAB27B4B1A707A4B72
:103230001B78002B1AD1774B01221A70764B0A2289
:103240001A7013E0734B1B78002B0FD0724B1B7856
:10325000013BDAB2704B1A706F4B1B78002B05D113
:103260006C4B00221A706C4B0A221A704FF40061EA
:103270006A4801F041FC0346002B17D0684B1B78CD
:1032800083F00103DBB2002B24D0664B1B78013B9B
:10329000DAB2644B1A70634B1B78002B1AD1604B67
:1032A00001221A705F4B0A221A7013E05C4B1B78E4
:1032B000002B0FD05B4B1B78013BDAB2594B1A70D5
:1032C000584B1B78002B05D1554B00221A70554BDB
:1032D0000A221A704FF40041534801F00DFC0346D6
:1032E000002B20D0514B1B7883F00103DBB2002B65
:1032F0002DD04F4B1B78013BDAB24D4B1A704C4B23
:103300001B78002B23D1494B01221A70484B0A220B
:103310001A70484B1B78002B19D0464B00221A70AC
:1033200000F0D6FF13E0414B1B78002B0FD0404B31
:103330001B78013BDAB23E4B1A703D4B1B78002BD9
:1033400005D13A4B00221A70394B0A221A704FF4F9
:103350008071324801F0D0FB0346002B20D0364B61
:103360001B7883F00103DBB2002B2DD0334B1B788D
:10337000013BDAB2314B1A70304B1B78002B23D152
:103380002D4B01221A702D4B0A221A702C4B1B78E0
:10339000002B19D02A4B00221A7000F0ADFF13E069
:1033A000254B1B78002B0FD0244B1B78013BDAB246
:1033B000224B1A70214B1B78002B05D11E4B00228B
:1033C0001A701E4B0A221A704021144801F094FB17
:1033D0000346002B3AD01B4B1B7883F00103DBB272
:1033E000002B47D0184B1B78013BDAB2164B1A70F2
:1033F000154B1B78002B3DD1124B01221A70124B3A
:103400000A221A7036E000BF000C0240D5000020EE
:1034100090020020DA000020D200002000080240C4
:10342000E8000020D300002000000240D800002067
:10343000D6000020D9000020F8000020D70000208E
:10344000D4000020E000002052020020754B1B78C1
:10345000002B0FD0744B1B78013BDAB2724B1A7001
:10346000714B1B78002B05D16E4B00221A706E4BEE
:103470000A221A7002216D4801F03EFB0346002B20
:1034800017D06B4B1B7883F00103DBB2002B24D0E9
:10349000684B1B78013BDAB2664B1A70654B1B78A0
:1034A000002B1AD1624B01221A70624B0A221A7049
:1034B00013E05F4B1B78002B0FD05E4B1B78013B5A
:1034C000DAB25C4B1A705B4B1B78002B05D1584B62
:1034D00000221A70574B0A221A700121564801F037
:1034E0000BFB0346002B17D0544B1B7883F00103D2
:1034F000DBB2002B24D0524B1B78013BDAB2504B8D
:103500001A704F4B1B78002B1AD14C4B01221A70AA
:103510004B4B0A221A7013E0484B1B78002B0FD03C
:10352000474B1B78013BDAB2454B1A70444B1B7872
:10353000002B05D1414B00221A70414B0A221A7010
:1035400002213D4801F0D8FA0346002B20D03D4B24
:103550001B7883F00103DBB2002B2DD03A4B1B7894
:10356000013BDAB2384B1A70374B1B78002B23D152
:10357000344B01221A70344B0A221A70334B1B78D9
:10358000002B19D0314B00221A7000F0C9FE13E055
:103590002C4B1B78002B0FD02B4B1B78013BDAB246
:1035A000294B1A70284B1B78002B05D1254B002284
:1035B0001A70254B0A221A704FF40071244801F04A
:1035C0009BFA0346002B17D0224B1B7883F0010394
:1035D000DBB2002B24D0204B1B78013BDAB21E4B10
:1035E0001A701D4B1B78002B1AD11A4B01221A702E
:1035F000194B0A221A7013E0164B1B78002B0FD0C0
:10360000154B1B78013BDAB2134B1A70124B1B7827
:10361000002B05D10F4B00221A700F4B0A221A7093
:1036200000BF80BDE00000205202002000080240E0
:103630001C0200209C000020000402401402002014
:10364000E9000020580200209D0000208801002091
:1036500000100240D1000020D000002080B483B0D0
:1036600000AF0346FB71FB79064A1360064B1A78DC
:10367000064B1A70044BFF221A7000BF0C37BD4670
:1036800080BC7047600000208E0000208F0000206A
:1036900080B485B000AF03460A46FB711346BB7188
:1036A0000023FB730023BB730823FB731EE0BA796E
:1036B000FB795340DBB203F00103BB73BB7B002BF0
:1036C00003D1BB795B08BB710AE0BB7983F01803B7
:1036D000BB71BB795B08BB71BB7963F07F03BB71C6
:1036E000FB795B08FB71FB7B013BFB73FB7B002BD6
:1036F000DDD1BB7918461437BD4680BC704700BF8A
:1037000080B584B000AF78600023FB730123BB60F9
:103710000DE0BB687A6813441B78FA7B11461846A3
:10372000FFF7B6FF0346FB73BB680133BB60BB68A2
:10373000032BEEDDFB7B18461037BD4680BD00BF76
:1037400080B500AF08220021024802F0E5F800BF72
:1037500080BD00BF9C03002080B500AF082200217F
:10376000024802F0D9F800BF80BD00BF94030020DA
:1037700080B485B000AF78600023FB7309E0FB7B69
:10378000FA7B79680A4411780A4AD154FB7B0133E9
:10379000FB73FB7B072BF2D9074B00221A60074B08
:1037A00001221A70064B00221A6000BF1437BD4672
:1037B00080BC704794030020900000208D00002002
:1037C0006000002080B400AF144B5B78A32B09D0BD
:1037D000A32B04DC512B0AD0522B10D019E0A53BAF
:1037E000022B16D80D4B5A780D4B1A7012E00D4B68
:1037F00001221A70094B5A78094B1A700AE0094BDA
:1038000000221A70064B00221A70074B00221A7011
:1038100000E000BF00BFBD4680BC7047940300209D
:103820008E0000208C0000208F00002080B582B028
:1038300000AF03460A46FB711346BB71194B1B6868
:103840000133184A1360174B1B680A2B0BD9164B10
:1038500041221A70154B41221A70154B00221A7022
:10386000144B00221A70FFF76BFF134BE6221A70FD
:10387000114B01225A70104ABB7993700E4AFB79A2
:10388000D3700D48FFF73CFF03461A460A4B1A71E6
:10389000094800F0D9FFFFF75FFF00BF0837BD46BA
:1038A00080BD00BF90000020800100205002002059
:1038B0008E0000208F0000209C03002080B582B085
:1038C00000AF2A4B1B78FF2B01D100234AE0274B86
:1038D0001B78F02B03D1264B1A78244B1A70254BFA
:1038E0001B68254AA2FB03235B09FB711F4B1B7856
:1038F000A52B15D0A52B04DC002B07D0A32B2CD097
:103900002DE0A62B16D0A72B1ED028E0194B1B7933
:10391000A5211846FFF78AFF6420FFF79FFE20E0ED
:10392000144B5B79A6211846FFF780FF6420FFF750
:1039300095FE16E00F4B9B79A7211846FFF776FFFF
:103940006420FFF78BFE0CE0FB79A3211846FFF7FC
:103950006DFF6420FFF782FE03E0012302E00123F4
:1039600000E0002318460837BD4680BD8E000020C9
:103970008F000020F00000208988888880B500AF83
:10398000FFF79CFF0346002B0AD0064B1B78512BF8
:1039900006D051210020FFF749FF6420FFF75EFEAB
:1039A00000BF80BD8E00002080B500AF064B1B78A5
:1039B000FF2B06D052210020FFF738FF6420FFF7CD
:1039C0004DFE00BF80BD00BF8E00002080B483B0DC
:1039D00000AF0346FB71084997F907305B09FA7994
:1039E00002F01F02012000FA02F241F8232000BF7A
:1039F0000C37BD4680BC704700E100E080B500AFE9
:103A000001211020FFF796FA0B4B14221A850A4B5E
:103A10000B22DA62084A084B9B899BB243F00103F0
:103A20009BB29381044A044B1B889BB243F0010371
:103A30009BB2138000BF80BD0010004080B500AF76
:103A400001210220FFF758FA01210420FFF754FA60
:103A500001210820FFF750FA01211020FFF74CFA4E
:103A60004C4B01221A714B4B00229A71494B002298
:103A7000DA71484B00225A71464B4FF400521A60DB
:103A80004449454800F0AAFF424B08221A604149C8
:103A9000424800F0A3FF3F4B10221A603D494048C6
:103AA00000F09CFF3B4B40221A603A493D4800F031
:103AB00095FF384B10221A603649384800F08EFFC7
:103AC000344B04221A603349344800F087FF314BED
:103AD00020221A602F49324800F080FF2D4B082227
:103AE0001A602C492F4800F079FF2A4B03225A71A3
:103AF000284B20221A602749284800F06FFF254BE9
:103B00004FF480721A602349254800F067FF214B6B
:103B100080221A601F49234800F060FF1D4B0422D9
:103B20001A601C491F4800F059FF4FF400511A4811
:103B300001F016F80821194801F012F81021184870
:103B400001F00EF84021174801F00AF8164B002248
:103B500083F82820154B002283F82820144B0022DC
:103B600083F82820134B002283F82820124B0022D0
:103B70001A70124B00221A70114B00221A70114B4E
:103B800000221A70FFF73AFF3620FFF71FFF00BF31
:103B900080BD00BF0C02002000080240001002405F
:103BA00000040240000C0240980200202002002085
:103BB00060020020A000002051020020D900002057
:103BC000D40000208801002098B500AF694A694BF5
:103BD0001B8A9BB223F001039BB21382664B93F8BE
:103BE0002830002B2CD0644B1B6A0133624A1362CD
:103BF000614B5B6A0133604A53625F4B5A6A5E4BAA
:103C00005B699A4214D15C4BD3E90034013344F12F
:103C10000004594AC2E90034574B012283F82A2094
:103C2000554B00225A622021544800F0A7FF07E0BC
:103C3000514B5B6A022B03D12021504800F090FFCA
:103C40004F4B93F82830002B2ED04D4B1B6A01337D
:103C50004B4A13624A4B5B6A0133494A5362484BF1
:103C60005A6A474B5B699A4215D1454BD3E90034F8
:103C7000013344F10004424AC2E90034404B0122BE
:103C800083F82A203E4B00225A624FF480713D484F
:103C900000F074FF08E03A4B5B6A022B04D14FF44A
:103CA0008071384800F05CFF374B93F82830002BC8
:103CB0002CD0354B1B6A0133334A1362324B5B6A9B
:103CC0000133314A5362304B5A6A2F4B5B699A4237
:103CD00014D12D4BD3E90034013344F100042A4AB6
:103CE000C2E90034284B012283F82A20264B002207
:103CF0005A628021254800F041FF07E0224B5B6AB1
:103D0000022B03D18021214800F02AFF204B93F899
:103D10002830002B2CD01E4B1B6A01331C4A136227
:103D20001B4B5B6A01331A4A5362194B5A6A184B90
:103D30005B699A4214D1164BD3E90034013344F144
:103D40000004134AC2E90034114B012283F82A20EF
:103D50000F4B00225A6204210C4800F00FFF07E0CD
:103D60000B4B5B6A022B03D10421084800F0F8FEDC
:103D700000BF98BD001000409802002000100240D3
:103D8000200200200004024060020020000C0240DB
:103D9000A000002098B500AF754B93F82830002B99
:103DA00035D0734BD3E90034714AD2E90212A242F2
:103DB00008BF99420ED26E4BD3E90234234309D097
:103DC0004FF400516B4800F0CBFE694B002283F8A2
:103DD00028201CE0664B93F82A30002B17D0644B48
:103DE0001A6A634B9B699A420DD3614B00221A6297
:103DF0005F4B5A695E4B1B699A4204D95C4B5B6905
:103E0000013B5B4A53615A4B002283F82A205A4BEC
:103E100093F82830002B34D0574BD3E90034564A5E
:103E2000D2E90212A24208BF99420DD2524BD3E905
:103E30000234234308D00821504800F091FE4E4B35
:103E4000002283F828201CE04B4B93F82A30002BEB
:103E500017D0494B1A6A484B9B699A420DD3464B7F
:103E600000221A62444B5A69434B1B699A4204D997
:103E7000414B5B69013B404A53613F4B002283F851
:103E80002A203F4B93F82830002B34D03C4BD3E909
:103E900000343B4AD2E90212A24208BF99420DD235
:103EA000374BD3E90234234308D01021354800F0C2
:103EB00057FE334B002283F828201CE0304B93F848
:103EC0002A30002B17D02E4B1A6A2D4B9B699A4231
:103ED0000DD32B4B00221A62294B5A69284B1B69C0
:103EE0009A4204D9264B5B69013B254A5361244B16
:103EF000002283F82A20244B93F82830002B34D05A
:103F0000214BD3E90034204AD2E90212A24208BF71
:103F100099420DD21C4BD3E90234234308D04021EF
:103F20001A4800F01DFE184B002283F828201CE0E0
:103F3000154B93F82A30002B17D0134B1A6A124BEB
:103F40009B699A420DD3104B00221A620E4B5A699C
:103F50000D4B1B699A4204D90B4B5B69013B0A4A22
:103F60005361094B002283F82A2000BF98BD00BF8F
:103F700098020020000802402002002000100240A9
:103F80006002002000040240A0000020000C02405B
:103F900090B585B000AFF860B9601346FB71284A50
:103FA000D7E90834C2E90234254A4FF000034FF044
:103FB0000004C2E90034224B22225A61FB684FF40C
:103FC000486202FB03F31F4AB2FBF3F31E4AA2FB53
:103FD00003235B081A4A1361BB681B4AA2FB032335
:103FE0005B08174A9361164B00221A62144B002299
:103FF000DA61134B012283F82820114B00225A6208
:10400000124A97F8283013700D4B002283F82A20AB
:10401000FB79012B04D110210D4800F0AFFD03E026
:1040200010210B4800F09CFD4FF40051094800F0AE
:10403000A5FD3620FFF7CAFC00BF1437BD4690BD72
:104040009802002040420F00ABAAAAAA5102002009
:10405000001002400008024090B585B000AFF86043
:10406000B9601346FB71284AD7E90834C2E9023423
:10407000254A4FF000034FF00004C2E90034224B00
:1040800022225A61FB684FF4486202FB03F31F4A85
:10409000B2FBF3F31E4AA2FB03235B081A4A136127
:1040A000BB681B4AA2FB03235B08174A9361164BAC
:1040B00000221A62144B0022DA61134B012283F8AA
:1040C0002820114B00225A62124A97F828301370A8
:1040D0000D4B002283F82A20FB79012B04D1042107
:1040E0000D4800F04BFD03E004210B4800F038FDC3
:1040F0000821094800F042FD3620FFF767FC00BFA9
:104100001437BD4690BD00BF2002002040420F0082
:10411000ABAAAAAAD90000200010024090B585B031
:1041200000AFF860B9601346FB71284AD7E908343C
:10413000C2E90234254A4FF000034FF00004C2E9FF
:104140000034224B22225A61FB684FF4486202FB82
:1041500003F31F4AB2FBF3F31E4AA2FB03235B08DF
:104160001A4A1361BB681B4AA2FB03235B08174A68
:104170009361164B00221A62144B0022DA61134B32
:10418000012283F82820114B00225A62124A97F824
:10419000283013700D4B002283F82A20FB79012B65
:1041A00004D120210D4800F0E9FC03E020210B4858
:1041B00000F0D6FC1021094800F0E0FC3620FFF7A3
:1041C00005FC00BF1437BD4690BD00BF6002002053
:1041D00040420F00ABAAAAAAD4000020000402406B
:1041E00090B585B000AFF860B9601346FB71284AFE
:1041F000D7E90834C2E90234254A4FF000034FF0F2
:104200000004C2E90034224B22225A61FB684FF4B9
:10421000486202FB03F31F4AB2FBF3F31E4AA2FB00
:1042200003235B081A4A1361BB681B4AA2FB0323E2
:104230005B08174A9361164B00221A62144B002246
:10424000DA61134B012283F82820114B00225A62B5
:10425000124A97F8283013700D4B002283F82A2059
:10426000FB79012B04D108210D4800F087FC03E005
:1042700008210B4800F074FC4021094800F07EFC46
:104280003620FFF7A3FB00BF1437BD4690BD00BF2B
:10429000A000002040420F00ABAAAAAA880100207B
:1042A000000C024098B500AF4FF40051064800F0F2
:1042B00057FC064B002283F82820044BD3E9003436
:1042C0001846214698BD00BF000802409802002011
:1042D00098B500AF0821064800F042FC054B0022CB
:1042E00083F82820034BD3E900341846214698BDB3
:1042F000001002402002002098B500AF10210648AF
:1043000000F02EFC054B002283F82820034BD3E954
:1043100000341846214698BD000402406002002087
:1043200098B500AF4021064800F01AFC054B00226A
:1043300083F82820034BD3E900341846214698BD62
:10434000000C0240A000002080B483B000AF034600
:10435000FB71084997F907305B09FA7902F01F02EF
:10436000012000FA02F241F8232000BF0C37BD46BD
:1043700080BC704700E100E080B590B000AF012143
:104380004FF40010FEF7B8FD4FF000637B601A4B4E
:10439000BB601A4BFB6040233B6105237B6100231C
:1043A000BB614FF48063FB6100233B6200237B62AF
:1043B0000023BB624FF48033FB6200233B63002386
:1043C0007B630023BB630023FB633B1D19460C4842
:1043D00000F04EFD012280210A48FCF7EBFD0F2082
:1043E000FFF7B2FF01221021054800F0EDFD00BFEC
:1043F0004037BD4680BD00BF044C0040D0020020C5
:1044000070600240004C004080B586B000AF4FF4B1
:104410001653BB600023BB810023FB8100233B823A
:104420000023BB820C237B8201210120FEF764FD67
:1044300001214FF40020FEF77DFD082200212848CD
:1044400000F0AAFB08220121254800F0A5FB00236B
:10445000BB710123FB7102233B7101233B600223EB
:104460007B713B4619461E4800F0B8FA02233B71A7
:1044700002233B603B461946194800F0AFFA07F1AA
:1044800008031846FCF75AFD07F1080319461548BA
:10449000FCF79AFC01211348FCF76CFD3420FFF770
:1044A00053FF012240F225510E48FCF7A7FD0123DE
:1044B0003B710023BB710023FB7100237B7104233C
:1044C0003B603B461946084800F088FA042106483C
:1044D00000F054FBFFF750FF00BF1837BD4680BD0A
:1044E00000000240004C00400008024080B500AFD0
:1044F0000421044800F034FB0121034800F00EFDC4
:1045000000BF80BD000802407060024080B500AF6F
:1045100005220021034801F0FFF9034B00221A7025
:1045200000BF80BDA40300209400002090B583B09C
:1045300000AF414B1B889BB203F02003002B42D0FD
:104540003D4B9B889BB2FB71FB79022B12D13B4BFD
:104550001B78022B0ED0FFF7D9FF394B1B78194679
:10456000364AFB795354364B1B780133DAB2344B5D
:104570001A7025E0314B1B78022B21D1304B1B7870
:10458000042B05D82E4B1B7819462C4AFB79535423
:104590002B4B1B78042B0DD1284B1C790421274869
:1045A000FCF72CFE03469C4204D12448FCF746FE4F
:1045B000FFF7ACFF224B1B780133DAB2204B1A70A5
:1045C000204B0A221A6040F227711B48FCF75EFD5F
:1045D0000346012B15D140F227711748FCF7B0FDB7
:1045E00040F226611448FCF7ABFD002240F227712F
:1045F0001148FCF703FD012240F226610E48FCF74A
:10460000FDFC40F226610C48FCF740FD0346012BFF
:104610000ED140F226610848FCF792FD002240F2DC
:1046200026610548FCF7EAFC0421074800F0A6FAD9
:1046300000BF0C37BD4690BD004C0040A4030020D5
:10464000940000205C0000200008024080B500AF0C
:104650000B490C4800F0F2FC0346012B0ED108492F
:10466000084800F041FD012240F227710648FCF79E
:10467000C5FC05220021054801F04EF900BF80BDB0
:104680002080002070600240004C0040D0020020DA
:1046900080B483B000AF0346FB71084997F9073037
:1046A0005B09FA7902F01F02012000FA02F241F8D8
:1046B000232000BF0C37BD4680BC704700E100E0FE
:1046C00080B500AF01214FF40010FEF715FC214B1F
:1046D0004FF000621A601F4B1F4A5A601F4A1D4B61
:1046E0009A601C4B4022DA601A4B05221A61194B62
:1046F00000225A61174B4FF480629A61154B0022D9
:10470000DA61144B00221A62124B00225A62114BDA
:104710004FF480329A620F4B0022DA620D4B002276
:104720001A630C4B00225A630A4B00229A63094910
:104730000B4800F09DFB012280210A48FCF73AFC5F
:104740001120FFF7A5FF01221021054800F03CFCD5
:1047500000BF80BDAC030020044400409C03002047
:10476000A06002400044004080B586B000AF4FF426
:104770001653BB600023BB810023FB8100233B82D7
:104780000023BB820C237B8201210120FEF7B4FBB6
:1047900001214FF40030FEF7CDFB0722022128480B
:1047A00000F0FAF907220321254800F0F5F900236B
:1047B000BB710123FB7102233B7104233B60022385
:1047C0007B713B4619461E4800F008F902233B71F5
:1047D00008233B603B461946194800F0FFF807F1F3
:1047E00008031846FCF7AAFB07F108031946154809
:1047F000FCF7EAFA01211348FCF7BCFB2620FFF77F
:1048000047FF012240F225510E48FCF7F7FB012338
:104810003B710023BB710023FB7100237B711023CC
:104820003B603B461946064800F0D8F81021044882
:1048300000F0A4F9FFF744FF00BF1837BD4680BD64
:10484000000002400044004080B582B000AF7860B4
:104850001021054800F084F90121044800F05EFBB6
:1048600000BF0837BD4680BD00000240A060024086
:1048700080B500AF08220021034801F04DF8034B3A
:1048800000221A7000BF80BDE803002096000020BF
:1048900080B582B000AF3D4B1B889BB203F0200374
:1048A000002B39D0394B9B889BB2FB71FB79012BD4
:1048B00012D1374B1B78012B0ED0FFF7D9FF354BA8
:1048C0001B781946324AFB795354324B1B7801331B
:1048D000DAB2304B1A701CE02D4B1B78012B18D12B
:1048E0002C4B1B78072B05D82A4B1B781946284AD6
:1048F000FB795354274B1B78042B04D12448FEF733
:1049000037FFFFF7B5FF234B1B780133DAB2214B9A
:104910001A70214B32221A6040F227711B48FCF7B3
:10492000B5FB0346012B15D140F227711748FCF760
:1049300007FC40F226611548FCF702FC002240F219
:1049400027711248FCF75AFB012240F226610F48FA
:10495000FCF754FB40F226610C48FCF797FB03463A
:10496000012B0ED140F226610848FCF7E9FB00223A
:1049700040F226610548FCF741FB1021074800F092
:10498000FDF800BF0837BD4680BD00BF00440040B1
:10499000E80300209600002058000020000002409C
:1049A00080B500AF0A490B4800F048FB0346012BD5
:1049B0000BD10749074800F097FB012240F227710D
:1049C0000548FCF71BFBFEF7BBFE00BF80BD00BF28
:1049D00000802020A06002400044004080B487B0E6
:1049E00000AF7860396000237B6100233B610023C6
:1049F000FB6000237B6176E001227B6902FA03F30E
:104A00003B613B681A683B691340FB60FA683B698D
:104A10009A4265D17B681A687B695B00032101FAC1
:104A200003F3DB431A407B681A607B681A683B68B3
:104A30001B7919467B695B0001FA03F31A437B6813
:104A40001A603B681B79012B03D03B681B79022B52
:104A50002ED17B689A687B695B00032101FA03F31E
:104A6000DB431A407B689A607B689A683B685B7995
:104A700019467B695B0001FA03F31A437B689A606D
:104A80007B685A687B699BB2012101FA03F3DB431F
:104A90001A407B685A607B685A683B689B79194664
:104AA0007B699BB201FA03F39BB21A437B685A609D
:104AB0007B68DA687B699BB25B00032101FA03F330
:104AC000DB431A407B68DA607B68DA683B68DB7935
:104AD00019467B695B0001FA03F31A437B68DA60CD
:104AE0007B6901337B617B690F2B85D900BF1C3744
:104AF000BD4680BC704700BF80B485B000AF786011
:104B00000B467B800023FB737B681A697B8813400C
:104B1000002B02D00123FB7301E00023FB73FB7B1E
:104B200018461437BD4680BC704700BF80B485B0BE
:104B300000AF78600B467B800023FB737B685A696B
:104B40007B881340002B02D00123FB7301E000237C
:104B5000FB73FB7B18461437BD4680BC704700BF13
:104B600080B483B000AF78600B467B807B687A8826
:104B70001A8300BF0C37BD4680BC704780B483B039
:104B800000AF78600B467B807B687A885A8300BFD1
:104B90000C37BD4680BC704780B485B000AF7860EC
:104BA0000B467B8013467B700023FB600023BB60B9
:104BB0007A787B8803F007039B0002FA03F3FB601B
:104BC0007B88DB089BB218467B88DB089BB21A46C1
:104BD0007B68083253F822207B8803F007039B0090
:104BE0000F2101FA03F3DB4302EA03017B6800F1C2
:104BF000080243F822107B88DB089BB21A467B68C8
:104C0000083253F82220FB681343BB607B88DB0823
:104C10009BB21A467B680832B96843F8221000BF7D
:104C20001437BD4680BC704780B500AF124A124BA6
:104C30001B6843F0010313600F4B00229A600E4A79
:104C40000D4B1B6823F0847323F4803313600A4BED
:104C50000A4A5A60084A084B1B6823F480231360F1
:104C6000054B0022DA6000F089F8054B4FF0006236
:104C70009A6000BF80BD00BF0038024010300024A1
:104C800000ED00E080B487B000AF00233B6100235B
:104C90007B610223FB600023BB6002237B60324BFD
:104CA0009B6803F00C033B613B69042B07D0082B86
:104CB00009D0002B3FD12D4B2D4A1A603FE02B4BE2
:104CC0002C4A1A603BE0284B5B6803F480039B0D81
:104CD000BB60254B5B6803F03F037B60BB68002B28
:104CE0000DD0244A7B68B2FBF3F21F4B596847F69C
:104CF000C0730B409B0903FB02F37B610CE01C4A71
:104D00007B68B2FBF3F2184B596847F6C0730B404F
:104D10009B0903FB02F37B61134B5B6803F4403395
:104D20001B0C01335B00FB607A69FB68B2FBF3F399
:104D30000E4A136003E00D4B0D4A1A6000BF0A4B88
:104D40009B6803F0F0031B090B4AD35CDBB23B61A9
:104D5000064B1A683B6922FA03F3044A136000BF4A
:104D60001C37BD4680BC7047003802402000002040
:104D70000024F40000127A002400002080B483B0E4
:104D800000AF00237B6000233B60354A344B1B6837
:104D900043F480331360324B1B6803F400333B60F1
:104DA0007B6801337B603B68002B03D17B68B3F5E4
:104DB000A06FF0D12A4B1B6803F40033002B02D004
:104DC00001233B6001E000233B603B68012B42D1A3
:104DD000234A234B1B6C43F080531364214A214B1D
:104DE0001B6843F4804313601D4A1D4B9B6893600E
:104DF0001B4A1B4B9B6843F400439360184A184BB3
:104E00009B6843F4A0539360154B174A5A60144AA9
:104E1000134B1B6843F08073136000BF104B1B687B
:104E200003F00073002BF9D0104B40F205621A60BA
:104E30000B4A0B4B9B6823F003039360084A084B13
:104E40009B6843F00203936000BF054B9B6803F02F
:104E50000C03082BF9D100BF0C37BD4680BC70474E
:104E6000003802400070004008544007003C0240F7
:104E700080B485B000AF786039600023FB607B6848
:104E80001B68FB60FA68244B1340FB603B681A68A0
:104E90003B68DB681A433B685B691A433B689B6964
:104EA0001A433B68DB691A433B681B6A1A433B6839
:104EB0005B6A1A433B689B6A1A433B685B6B1A4305
:104EC0003B689B6B1343FA681343FB607B68FA688B
:104ED0001A607B685B69FB60FB6823F00703FB607B
:104EE0003B68DA6A3B681B6B1343FA681343FB6049
:104EF0007B68FA685A613B681A697B685A603B684C
:104F00005A687B689A603B689A687B68DA6000BF81
:104F10001437BD4680BC70473F801CF080B483B01E
:104F200000AF78600B46FB70FB78002B06D07B68E7
:104F30001B6843F001027B681A6005E07B681B6810
:104F400023F001027B681A6000BF0C37BD4680BCAD
:104F5000704700BF80B483B000AF78607B685B6847
:104F60009BB218460C37BD4680BC704780B485B0F4
:104F700000AF786039607B68104A934202D8104BCA
:104F8000FB6001E00F4BFB603B6803F00053002B1C
:104F900007D03B6823F0F02323F08213FA68D36034
:104FA00006E03B6823F0F02323F08213FA68936055
:104FB00000BF1437BD4680BC704700BF0F6402407D
:104FC000006002400064024080B485B000AFF86029
:104FD000B9601346FB71BB6803F08003002B0FD050
:104FE000FB79002B06D0FB685B6943F08002FB680D
:104FF0005A6105E0FB685B6923F08002FB685A6137
:10500000BB68802B14D0FB79002B08D0FB681A6892
:10501000BB6803F01E031A43FB681A6008E0FB68D4
:105020001A68BB6803F01E03DB431A40FB681A6072
:1050300000BF1437BD4680BC704700BF80B487B046
:1050400000AF786039600023FB750023FB6000230C
:10505000BB607B68214A934202D8214B3B6101E04F
:10506000204B3B613B6823F0F02323F0C313002B5C
:105070000AD03B68DB0A03F01E03FB607B681A68FA
:10508000FB681340BB6004E07B685B6903F080034E
:10509000BB603B6803F00053002B03D03B695B68A7
:1050A000FB6002E03B691B68FB60FB6823F0F023B8
:1050B00023F08213FB60FA683B681340002B05D095
:1050C000BB68002B02D00123FB7501E00023FB75B8
:1050D000FB7D18461C37BD4680BC70470F640240FC
:1050E000006002400064024080B485B000AF786088
:1050F00039607B68104A934202D8104BFB6001E094
:105100000F4BFB603B6803F00053002B07D03B685C
:1051100023F0F02323F08213FA68D36006E03B68A3
:1051200023F0F02323F08213FA68936000BF143752
:10513000BD4680BC704700BF0F6402400060024063
:105140000064024081F0004102E000BF83F00043B0
:1051500030B54FEA41044FEA430594EA050F08BF12
:1051600090EA020F1FBF54EA000C55EA020C7FEAD6
:10517000645C7FEA655C00F0E2804FEA5454D4EB53
:105180005555B8BF6D420CDD2C4480EA020281EA1D
:10519000030382EA000083EA010180EA020281EA55
:1051A0000303362D88BF30BD11F0004F4FEA0131A7
:1051B0004FF4801C4CEA113102D0404261EB4101B6
:1051C00013F0004F4FEA03334CEA133302D052423C
:1051D00063EB430394EA050F00F0A780A4F10104F8
:1051E000D5F1200E0DDB02FA0EFC22FA05F2801832
:1051F00041F1000103FA0EF2801843FA05F3594118
:105200000EE0A5F120050EF1200E012A03FA0EFC96
:1052100028BF4CF0020C43FA05F3C01851EBE371C0
:1052200001F0004507D54FF0000EDCF1000C7EEBDD
:1052300000006EEB0101B1F5801F1BD3B1F5001F1B
:105240000CD349085FEA30004FEA3C0C04F101043A
:105250004FEA445212F5800F80F09A80BCF1004F63
:1052600008BF5FEA500C50F1000041EB045141EAE5
:10527000050130BD5FEA4C0C404141EB010111F4E6
:10528000801FA4F10104E9D191F0000F04BF014691
:105290000020B1FA81F308BF2033A3F10B03B3F16F
:1052A00020020CDA0C3208DD02F1140CC2F10C02FF
:1052B00001FA0CF021FA02F10CE002F11402D8BF5D
:1052C000C2F1200C01FA02F120FA0CFCDCBF41EA29
:1052D0000C019040E41AA2BF01EB0451294330BDF8
:1052E0006FEA04041F3C1CDA0C340EDC04F11404D5
:1052F000C4F1200220FA04F001FA02F340EA0300AC
:1053000021FA04F345EA030130BDC4F10C04C4F1F1
:10531000200220FA02F001FA04F340EA03002946D1
:1053200030BD21FA04F0294630BD94F0000F83F41B
:10533000801306BF81F480110134013D4EE77FEAFE
:10534000645C18BF7FEA655C29D094EA050F08BF4A
:1053500090EA020F05D054EA000C04BF194610462B
:1053600030BD91EA030F1EBF0021002030BD5FEA6F
:10537000545C05D14000494128BF41F0004130BD97
:1053800014F580043CBF01F5801130BD01F00045EB
:1053900045F0FE4141F470014FF0000030BD7FEA5E
:1053A000645C1ABF194610467FEA655C1CBF0B4659
:1053B000024650EA013406BF52EA033591EA030F70
:1053C00041F4002130BD00BF90F0000F04BF002168
:1053D000704730B54FF4806404F132044FF000059B
:1053E0004FF0000150E700BF90F0000F04BF002114
:1053F000704730B54FF4806404F1320410F000457A
:1054000048BF40424FF000013EE700BF42004FEA74
:10541000E2014FEA31014FEA02701FBF12F07F43F1
:1054200093F07F4F81F06051704792F0000F14BFEE
:1054300093F07F4F704730B54FF4607401F0004532
:1054400021F0004120E700BF50EA010208BF704789
:1054500030B54FF000050AE050EA010208BF70477E
:1054600030B511F0004502D5404261EB41014FF4E7
:10547000806404F132045FEA915C3FF4DCAE4FF0EB
:1054800003025FEADC0C18BF03325FEADC0C18BFD2
:10549000033202EBDC02C2F1200300FA03FC20FA23
:1054A00002F001FA03FE40EA0E0021FA02F1144470
:1054B000C1E600BF70B54FF0FF0C4CF4E06C1CEA85
:1054C00011541DBF1CEA135594EA0C0F95EA0C0FFA
:1054D00000F0DEF82C4481EA030621EA4C5123EA6D
:1054E0004C5350EA013518BF52EA033541F480119C
:1054F00043F4801338D0A0FB02CE4FF00005E1FB4F
:1055000002E506F00042E0FB03E54FF00006E1FB98
:1055100003569CF0000F18BF4EF0010EA4F1FF04DB
:10552000B6F5007F64F5407404D25FEA4E0E6D411B
:1055300046EB060642EAC62141EA55514FEAC5202C
:1055400040EA5E504FEACE2EB4F1FD0C88BFBCF5A8
:10555000E06F1ED8BEF1004F08BF5FEA500E50F159
:10556000000041EB045170BD06F0004646EA01011F
:1055700040EA020081EA0301B4EB5C04C2BFD4EB51
:105580000C0541EA045170BD41F480114FF0000E4A
:10559000013C00F3AB8014F1360FDEBF002001F0B8
:1055A000004170BDC4F10004203C35DA0C341BDC32
:1055B00004F11404C4F1200500FA05F320FA04F004
:1055C00001FA05F240EA020001F0004221F0004138
:1055D00010EBD37021FA04F642EB06015EEA430EAB
:1055E00008BF20EAD37070BDC4F10C04C4F12005DB
:1055F00000FA04F320FA05F001FA04F240EA02008E
:1056000001F0004110EBD37041F100015EEA430E5E
:1056100008BF20EAD37070BDC4F1200500FA05F27E
:105620004EEA020E20FA04F301FA05F243EA0203FD
:1056300021FA04F001F0004121FA04F220EA02000C
:1056400000EBD3705EEA430E08BF20EAD37070BD52
:1056500094F0000F0FD101F00046400041EB010132
:1056600011F4801F08BF013CF7D041EA060195F014
:10567000000F18BF704703F00046520043EB0303CE
:1056800013F4801F08BF013DF7D043EA06037047BB
:1056900094EA0C0F0CEA135518BF95EA0C0F0CD0C6
:1056A00050EA410618BF52EA4306D1D181EA03010C
:1056B00001F000414FF0000070BD50EA410606BF06
:1056C0001046194652EA430619D094EA0C0F02D14B
:1056D00050EA013613D195EA0C0F05D152EA033690
:1056E0001CBF104619460AD181EA030101F00041AE
:1056F00041F0FE4141F470014FF0000070BD41F0F7
:10570000FE4141F4780170BD70B54FF0FF0C4CF4D0
:10571000E06C1CEA11541DBF1CEA135594EA0C0FEF
:1057200095EA0C0F00F0A7F8A4EB050481EA030E3C
:1057300052EA03354FEA013100F088804FEA033323
:105740004FF0805545EA131343EA12634FEA0222F1
:1057500045EA111545EA10654FEA00260EF00041B2
:105760009D4208BF964244F1FD0404F5407402D204
:105770005B084FEA3202B61A65EB03055B084FEA95
:1057800032024FF480104FF4002CB6EB020E75EB92
:10579000030E22BFB61A754640EA0C005B084FEABA
:1057A0003202B6EB020E75EB030E22BFB61A754637
:1057B00040EA5C005B084FEA3202B6EB020E75EB82
:1057C000030E22BFB61A754640EA9C005B084FEAFA
:1057D0003202B6EB020E75EB030E22BFB61A754607
:1057E00040EADC0055EA060E18D04FEA051545EAF6
:1057F00016754FEA06164FEAC30343EA52734FEA9F
:10580000C2025FEA1C1CC0D111F4801F0BD141EA17
:1058100000014FF000004FF0004CB6E711F4801F7C
:1058200004BF01430020B4F1FD0C88BFBCF5E06F5C
:105830003FF6AFAEB5EB030C04BFB6EB020C5FEA6C
:10584000500C50F1000041EB045170BD0EF0004EC1
:105850004EEA113114EB5C04C2BFD4EB0C0541EAF3
:10586000045170BD41F480114FF0000E013C90E6F0
:1058700045EA060E8DE60CEA135594EA0C0F08BFB4
:1058800095EA0C0F3FF43BAF94EA0C0F0AD150EAB3
:1058900001347FF434AF95EA0C0F7FF425AF104646
:1058A00019462CE795EA0C0F06D152EA03353FF46E
:1058B000FDAE1046194622E750EA410618BF52EAEB
:1058C00043067FF4C5AE50EA41047FF40DAF52EABF
:1058D00043057FF4EBAE12E74A0011D212F5001235
:1058E00011D20DD56FF47873B3EB62520ED44FEA38
:1058F000C12343F0004343EA505323FA02F07047B8
:105900004FF00000704750EA013002D14FF0FF30F5
:1059100070474FF00000704770B4840746D0541EA3
:10592000002A41D0CDB2034602E0621EE4B3144621
:1059300003F8015B9A07F8D1032C2ED9CDB245EAC2
:1059400005250F2C45EA054519D903F11002264615
:10595000103E0F2E42F8105C42F80C5C42F8085CD6
:1059600042F8045C02F11002F2D8A4F1100222F015
:105970000F0204F00F041032032C13440DD91E46FD
:105980002246043A032A46F8045BFAD8221F22F082
:1059900003020432134404F003042CB1C9B21C44C2
:1059A00003F8011BA342FBD170BC704714460346A9
:0459B000C2E700BF8B
:1059B400FC530000E8030000E8030000640000005A
:1059C40000000000010203040102030406070809A1
:1059D400007A030A00000000000000000102030432
:0459E40006070809A1
:0400000508000000EF
:00000001FF
